{
  "contractName": "Deal",
  "abi": [
    {
      "constant": false,
      "inputs": [
        {
          "name": "_dealIndex",
          "type": "uint256"
        }
      ],
      "name": "userCancelled",
      "outputs": [],
      "payable": false,
      "stateMutability": "nonpayable",
      "type": "function"
    },
    {
      "constant": false,
      "inputs": [],
      "name": "hostDeposit",
      "outputs": [
        {
          "name": "",
          "type": "uint256"
        }
      ],
      "payable": true,
      "stateMutability": "payable",
      "type": "function"
    },
    {
      "constant": false,
      "inputs": [
        {
          "name": "_hostAddress",
          "type": "address"
        },
        {
          "name": "_price",
          "type": "uint256"
        }
      ],
      "name": "makeDeal",
      "outputs": [],
      "payable": false,
      "stateMutability": "nonpayable",
      "type": "function"
    },
    {
      "constant": false,
      "inputs": [
        {
          "name": "_dealIndex",
          "type": "uint256"
        }
      ],
      "name": "hostViolated",
      "outputs": [],
      "payable": false,
      "stateMutability": "nonpayable",
      "type": "function"
    },
    {
      "constant": true,
      "inputs": [
        {
          "name": "_userAddress",
          "type": "address"
        }
      ],
      "name": "getUserBalance",
      "outputs": [
        {
          "name": "",
          "type": "uint256"
        }
      ],
      "payable": false,
      "stateMutability": "view",
      "type": "function"
    },
    {
      "constant": false,
      "inputs": [],
      "name": "userDeposit",
      "outputs": [
        {
          "name": "",
          "type": "uint256"
        }
      ],
      "payable": true,
      "stateMutability": "payable",
      "type": "function"
    },
    {
      "constant": true,
      "inputs": [
        {
          "name": "_hostAddress",
          "type": "address"
        }
      ],
      "name": "getHostBalance",
      "outputs": [
        {
          "name": "",
          "type": "uint256"
        }
      ],
      "payable": false,
      "stateMutability": "view",
      "type": "function"
    },
    {
      "constant": false,
      "inputs": [
        {
          "name": "_dealIndex",
          "type": "uint256"
        }
      ],
      "name": "getDeal",
      "outputs": [
        {
          "name": "",
          "type": "address"
        },
        {
          "name": "",
          "type": "address"
        },
        {
          "name": "",
          "type": "uint256"
        }
      ],
      "payable": false,
      "stateMutability": "nonpayable",
      "type": "function"
    },
    {
      "constant": false,
      "inputs": [
        {
          "name": "_dealIndex",
          "type": "uint256"
        }
      ],
      "name": "hostCancelled",
      "outputs": [],
      "payable": false,
      "stateMutability": "nonpayable",
      "type": "function"
    },
    {
      "constant": true,
      "inputs": [],
      "name": "owner",
      "outputs": [
        {
          "name": "",
          "type": "address"
        }
      ],
      "payable": false,
      "stateMutability": "view",
      "type": "function"
    },
    {
      "constant": false,
      "inputs": [
        {
          "name": "_dealIndex",
          "type": "uint256"
        }
      ],
      "name": "hostAccepted",
      "outputs": [],
      "payable": false,
      "stateMutability": "nonpayable",
      "type": "function"
    },
    {
      "constant": false,
      "inputs": [
        {
          "name": "_dealIndex",
          "type": "uint256"
        }
      ],
      "name": "userViolated",
      "outputs": [],
      "payable": false,
      "stateMutability": "nonpayable",
      "type": "function"
    },
    {
      "inputs": [],
      "payable": false,
      "stateMutability": "nonpayable",
      "type": "constructor"
    },
    {
      "anonymous": false,
      "inputs": [],
      "name": "DealMade",
      "type": "event"
    },
    {
      "anonymous": false,
      "inputs": [],
      "name": "DealCancelled",
      "type": "event"
    },
    {
      "anonymous": false,
      "inputs": [],
      "name": "DealAccepted",
      "type": "event"
    },
    {
      "anonymous": false,
      "inputs": [],
      "name": "DealViolated",
      "type": "event"
    },
    {
      "anonymous": false,
      "inputs": [],
      "name": "DealFinished",
      "type": "event"
    }
  ],
  "bytecode": "0x60606040526000600855341561001457600080fd5b336000806101000a81548173ffffffffffffffffffffffffffffffffffffffff021916908373ffffffffffffffffffffffffffffffffffffffff16021790555061182a806100636000396000f3006060604052600436106100ba576000357c0100000000000000000000000000000000000000000000000000000000900463ffffffff168063083b6abb146100bf57806320968178146100e25780633f91ee52146101005780634622f7b214610142578063477348921461016557806348146113146101b25780635c2c38c1146101d057806382fd5bac1461021d57806384a74fbf146102ba5780638da5cb5b146102dd578063ca79e74114610332578063de23dc1a14610355575b600080fd5b34156100ca57600080fd5b6100e06004808035906020019091905050610378565b005b6100ea61051e565b6040518082815260200191505060405180910390f35b341561010b57600080fd5b610140600480803573ffffffffffffffffffffffffffffffffffffffff169060200190919080359060200190919050506105b2565b005b341561014d57600080fd5b61016360048080359060200190919050506108bf565b005b341561017057600080fd5b61019c600480803573ffffffffffffffffffffffffffffffffffffffff16906020019091905050610d20565b6040518082815260200191505060405180910390f35b6101ba610d69565b6040518082815260200191505060405180910390f35b34156101db57600080fd5b610207600480803573ffffffffffffffffffffffffffffffffffffffff16906020019091905050610dfd565b6040518082815260200191505060405180910390f35b341561022857600080fd5b61023e6004808035906020019091905050610e46565b604051808473ffffffffffffffffffffffffffffffffffffffff1673ffffffffffffffffffffffffffffffffffffffff1681526020018373ffffffffffffffffffffffffffffffffffffffff1673ffffffffffffffffffffffffffffffffffffffff168152602001828152602001935050505060405180910390f35b34156102c557600080fd5b6102db6004808035906020019091905050610edd565b005b34156102e857600080fd5b6102f0611149565b604051808273ffffffffffffffffffffffffffffffffffffffff1673ffffffffffffffffffffffffffffffffffffffff16815260200191505060405180910390f35b341561033d57600080fd5b610353600480803590602001909190505061116e565b005b341561036057600080fd5b610376600480803590602001909190505061134c565b005b3373ffffffffffffffffffffffffffffffffffffffff166005600083815260200190815260200160002060000160009054906101000a900473ffffffffffffffffffffffffffffffffffffffff1673ffffffffffffffffffffffffffffffffffffffff161415156103e857600080fd5b6000600560008381526020019081526020016000206005015414151561040d57600080fd5b6005600082815260200190815260200160002060040154600260003373ffffffffffffffffffffffffffffffffffffffff1673ffffffffffffffffffffffffffffffffffffffff168152602001908152602001600020600082825403925050819055506005600082815260200190815260200160002060040154600160003373ffffffffffffffffffffffffffffffffffffffff1673ffffffffffffffffffffffffffffffffffffffff16815260200190815260200160002060008282540192505081905550600a60056000838152602001908152602001600020600501819055507f39788e9aea41c531a707c7fc09db5f9962713d2c540860052090e5e39e61051560405160405180910390a150565b600034600360003373ffffffffffffffffffffffffffffffffffffffff1673ffffffffffffffffffffffffffffffffffffffff16815260200190815260200160002060008282540192505081905550600360003373ffffffffffffffffffffffffffffffffffffffff1673ffffffffffffffffffffffffffffffffffffffff16815260200190815260200160002054905090565b60008082600160003373ffffffffffffffffffffffffffffffffffffffff1673ffffffffffffffffffffffffffffffffffffffff168152602001908152602001600020541015151561060357600080fd5b82600160003373ffffffffffffffffffffffffffffffffffffffff1673ffffffffffffffffffffffffffffffffffffffff1681526020019081526020016000206000828254039250508190555082600260003373ffffffffffffffffffffffffffffffffffffffff1673ffffffffffffffffffffffffffffffffffffffff1681526020019081526020016000206000828254019250508190555060146064848115156106ab57fe5b04029150818303905060c0604051908101604052803373ffffffffffffffffffffffffffffffffffffffff1681526020018573ffffffffffffffffffffffffffffffffffffffff168152602001838152602001828152602001848152602001600081525060056000600854815260200190815260200160002060008201518160000160006101000a81548173ffffffffffffffffffffffffffffffffffffffff021916908373ffffffffffffffffffffffffffffffffffffffff16021790555060208201518160010160006101000a81548173ffffffffffffffffffffffffffffffffffffffff021916908373ffffffffffffffffffffffffffffffffffffffff16021790555060408201518160020155606082015181600301556080820151816004015560a08201518160050155905050600660003373ffffffffffffffffffffffffffffffffffffffff1673ffffffffffffffffffffffffffffffffffffffff168152602001908152602001600020805480600101828161082e91906117ad565b9160005260206000209001600060085490919091505550600760008573ffffffffffffffffffffffffffffffffffffffff1673ffffffffffffffffffffffffffffffffffffffff168152602001908152602001600020805480600101828161089691906117ad565b916000526020600020900160006008549091909150555060016008540160088190555050505050565b6000809054906101000a900473ffffffffffffffffffffffffffffffffffffffff1673ffffffffffffffffffffffffffffffffffffffff163373ffffffffffffffffffffffffffffffffffffffff1614151561091a57600080fd5b6014600560008381526020019081526020016000206005015414151561093f57600080fd5b6005600082815260200190815260200160002060020154600460006005600085815260200190815260200160002060010160009054906101000a900473ffffffffffffffffffffffffffffffffffffffff1673ffffffffffffffffffffffffffffffffffffffff1673ffffffffffffffffffffffffffffffffffffffff168152602001908152602001600020600082825403925050819055506005600082815260200190815260200160002060020154600160006005600085815260200190815260200160002060000160009054906101000a900473ffffffffffffffffffffffffffffffffffffffff1673ffffffffffffffffffffffffffffffffffffffff1673ffffffffffffffffffffffffffffffffffffffff168152602001908152602001600020600082825401925050819055506005600082815260200190815260200160002060020154600260006005600085815260200190815260200160002060000160009054906101000a900473ffffffffffffffffffffffffffffffffffffffff1673ffffffffffffffffffffffffffffffffffffffff1673ffffffffffffffffffffffffffffffffffffffff168152602001908152602001600020600082825403925050819055506005600082815260200190815260200160002060020154600160006005600085815260200190815260200160002060000160009054906101000a900473ffffffffffffffffffffffffffffffffffffffff1673ffffffffffffffffffffffffffffffffffffffff1673ffffffffffffffffffffffffffffffffffffffff168152602001908152602001600020600082825401925050819055506005600082815260200190815260200160002060030154600260006005600085815260200190815260200160002060000160009054906101000a900473ffffffffffffffffffffffffffffffffffffffff1673ffffffffffffffffffffffffffffffffffffffff1673ffffffffffffffffffffffffffffffffffffffff168152602001908152602001600020600082825403925050819055506005600082815260200190815260200160002060030154600160006005600085815260200190815260200160002060000160009054906101000a900473ffffffffffffffffffffffffffffffffffffffff1673ffffffffffffffffffffffffffffffffffffffff1673ffffffffffffffffffffffffffffffffffffffff16815260200190815260200160002060008282540192505081905550601f60056000838152602001908152602001600020600501819055507f14b327b0ef3a9871233716c7e7995402e08487e7989b099e0ae4beeabd1ac9d660405160405180910390a150565b6000600160008373ffffffffffffffffffffffffffffffffffffffff1673ffffffffffffffffffffffffffffffffffffffff168152602001908152602001600020549050919050565b600034600160003373ffffffffffffffffffffffffffffffffffffffff1673ffffffffffffffffffffffffffffffffffffffff16815260200190815260200160002060008282540192505081905550600160003373ffffffffffffffffffffffffffffffffffffffff1673ffffffffffffffffffffffffffffffffffffffff16815260200190815260200160002054905090565b6000600160008373ffffffffffffffffffffffffffffffffffffffff1673ffffffffffffffffffffffffffffffffffffffff168152602001908152602001600020549050919050565b60008060006005600085815260200190815260200160002060000160009054906101000a900473ffffffffffffffffffffffffffffffffffffffff166005600086815260200190815260200160002060010160009054906101000a900473ffffffffffffffffffffffffffffffffffffffff1660056000878152602001908152602001600020600401549250925092509193909250565b3373ffffffffffffffffffffffffffffffffffffffff166005600083815260200190815260200160002060010160009054906101000a900473ffffffffffffffffffffffffffffffffffffffff1673ffffffffffffffffffffffffffffffffffffffff16141515610f4d57600080fd5b60006005600083815260200190815260200160002060050154141515610f7257600080fd5b6005600082815260200190815260200160002060040154600260003373ffffffffffffffffffffffffffffffffffffffff1673ffffffffffffffffffffffffffffffffffffffff168152602001908152602001600020600082825403925050819055506005600082815260200190815260200160002060040154600160003373ffffffffffffffffffffffffffffffffffffffff1673ffffffffffffffffffffffffffffffffffffffff168152602001908152602001600020600082825401925050819055506005600082815260200190815260200160002060020154600460003373ffffffffffffffffffffffffffffffffffffffff1673ffffffffffffffffffffffffffffffffffffffff168152602001908152602001600020600082825403925050819055506005600082815260200190815260200160002060020154600360003373ffffffffffffffffffffffffffffffffffffffff1673ffffffffffffffffffffffffffffffffffffffff16815260200190815260200160002060008282540192505081905550600b60056000838152602001908152602001600020600501819055507f39788e9aea41c531a707c7fc09db5f9962713d2c540860052090e5e39e61051560405160405180910390a150565b6000809054906101000a900473ffffffffffffffffffffffffffffffffffffffff1681565b3373ffffffffffffffffffffffffffffffffffffffff166005600083815260200190815260200160002060010160009054906101000a900473ffffffffffffffffffffffffffffffffffffffff1673ffffffffffffffffffffffffffffffffffffffff161415156111de57600080fd5b6000600560008381526020019081526020016000206005015414151561120357600080fd5b6005600082815260200190815260200160002060020154600360003373ffffffffffffffffffffffffffffffffffffffff1673ffffffffffffffffffffffffffffffffffffffff168152602001908152602001600020541015151561126757600080fd5b6005600082815260200190815260200160002060040154600360003373ffffffffffffffffffffffffffffffffffffffff1673ffffffffffffffffffffffffffffffffffffffff168152602001908152602001600020600082825403925050819055506005600082815260200190815260200160002060040154600460003373ffffffffffffffffffffffffffffffffffffffff1673ffffffffffffffffffffffffffffffffffffffff168152602001908152602001600020600082825401925050819055506014600560008381526020019081526020016000206005018190555050565b6000809054906101000a900473ffffffffffffffffffffffffffffffffffffffff1673ffffffffffffffffffffffffffffffffffffffff163373ffffffffffffffffffffffffffffffffffffffff161415156113a757600080fd5b601460056000838152602001908152602001600020600501541415156113cc57600080fd5b6005600082815260200190815260200160002060020154600460006005600085815260200190815260200160002060010160009054906101000a900473ffffffffffffffffffffffffffffffffffffffff1673ffffffffffffffffffffffffffffffffffffffff1673ffffffffffffffffffffffffffffffffffffffff168152602001908152602001600020600082825403925050819055506005600082815260200190815260200160002060020154600360006005600085815260200190815260200160002060010160009054906101000a900473ffffffffffffffffffffffffffffffffffffffff1673ffffffffffffffffffffffffffffffffffffffff1673ffffffffffffffffffffffffffffffffffffffff168152602001908152602001600020600082825401925050819055506005600082815260200190815260200160002060020154600260006005600085815260200190815260200160002060000160009054906101000a900473ffffffffffffffffffffffffffffffffffffffff1673ffffffffffffffffffffffffffffffffffffffff1673ffffffffffffffffffffffffffffffffffffffff168152602001908152602001600020600082825403925050819055506005600082815260200190815260200160002060020154600360006005600085815260200190815260200160002060010160009054906101000a900473ffffffffffffffffffffffffffffffffffffffff1673ffffffffffffffffffffffffffffffffffffffff1673ffffffffffffffffffffffffffffffffffffffff168152602001908152602001600020600082825401925050819055506005600082815260200190815260200160002060030154600260006005600085815260200190815260200160002060000160009054906101000a900473ffffffffffffffffffffffffffffffffffffffff1673ffffffffffffffffffffffffffffffffffffffff1673ffffffffffffffffffffffffffffffffffffffff168152602001908152602001600020600082825403925050819055506005600082815260200190815260200160002060030154600160006005600085815260200190815260200160002060000160009054906101000a900473ffffffffffffffffffffffffffffffffffffffff1673ffffffffffffffffffffffffffffffffffffffff1673ffffffffffffffffffffffffffffffffffffffff16815260200190815260200160002060008282540192505081905550601e60056000838152602001908152602001600020600501819055507f14b327b0ef3a9871233716c7e7995402e08487e7989b099e0ae4beeabd1ac9d660405160405180910390a150565b8154818355818115116117d4578183600052602060002091820191016117d391906117d9565b5b505050565b6117fb91905b808211156117f75760008160009055506001016117df565b5090565b905600a165627a7a72305820e63caa14796d2f6b09a5362eec53c2b22bc36fbbaf8f69b81dcba71b9185bdf20029",
  "source": "pragma solidity ^0.4.15;\n\ncontract Deal {\n\n    /* Standard state variables */\n    address public owner;\n\n    struct DealContract {\n\t\taddress userAddress;\n        address hostAddress;\n        uint256 depositePrice;\n        uint256 payLaterPrice;\n\t\tuint256 price;\n        uint status;\n\t}\n\n    uint constant DEAL_STATUS_PENDING = 0;\n    uint constant DEAL_STATUS_USER_CANCELLED = 10;\n    uint constant DEAL_STATUS_HOST_CANCELLED = 11;\n    uint constant DEAL_STATUS_HOST_ACCEPTED = 20;\n    uint constant DEAL_STATUS_USER_VIOLATED = 30;\n    uint constant DEAL_STATUS_HOST_VIOLATED = 31;\n    uint constant DEAL_STATUS_FINISHED = 40;\n\n    uint constant DEAL_CANCELLED_BY_USER = 1;\n    uint constant DEAL_CANCELLED_BY_HOST = 2;\n\n    /* Keep track balances of every user */\n    mapping (address => uint256) userBalances;\n    mapping (address => uint256) userFreezeBalances;\n\n    /* Keep track balances of every host */\n    mapping (address => uint256) hostBalances;\n    mapping (address => uint256) hostFreezeBalances;\n\n    /* Keep track of every deal */\n    mapping (uint => DealContract) deals;\n\n    mapping (address => uint[]) userDealIndex;\n\n    mapping (address => uint[]) hostDealIndex; \n\n    uint dealIndex = 0;\n\n    /* End Standard state variables */\n\n    /* Event */\n    event DealMade();\n    event DealCancelled();\n    event DealAccepted();\n    event DealViolated();\n    event DealFinished();\n\n    /* End Event */\n\n    /* Modifier */\n    modifier ownerOnly() {\n\t\trequire(msg.sender == owner);\n\t\t_;\n\t}\n    /* End Modifier */\n\n    /* Constructor function, where owner set */\n    function Deal() public {\n        owner = msg.sender;\n    }\n\n    function userDeposit () payable public returns (uint256) {\n        userBalances[msg.sender] += msg.value;\n\n        return userBalances[msg.sender];\n    }\n\n    function hostDeposit () payable public returns (uint256) {\n        hostBalances[msg.sender] += msg.value;\n\n        return hostBalances[msg.sender];\n    }\n\n    // Make deal from users\n    function makeDeal (address _hostAddress, uint256 _price) public {        \n\n        require(userBalances[msg.sender] >= _price);\n\n        userBalances[msg.sender] -= _price;\n        userFreezeBalances[msg.sender] += _price;\n\n        uint256 depositPrice = _price / 100 * 20;\n        uint256 payLaterPrice = _price - depositPrice;\n\n        deals[dealIndex] = DealContract({\n            userAddress : msg.sender,\n            hostAddress : _hostAddress,\n            depositePrice : depositPrice,\n            payLaterPrice : payLaterPrice,\n            price : _price,\n            status : DEAL_STATUS_PENDING\n        });\n        userDealIndex[msg.sender].push(dealIndex);\n        hostDealIndex[_hostAddress].push(dealIndex);\n\n        dealIndex = dealIndex + 1;\n    }\n\n    function getDeal (uint _dealIndex) public returns (address, address, uint) {\n        return (deals[_dealIndex].userAddress, deals[_dealIndex].hostAddress, deals[_dealIndex].price);\n    }\n\n    function hostAccepted (uint _dealIndex) public {\n        require(deals[_dealIndex].hostAddress == msg.sender);\n        require(deals[_dealIndex].status == DEAL_STATUS_PENDING);\n        require(hostBalances[msg.sender] >= deals[_dealIndex].depositePrice);\n\n        hostBalances[msg.sender] -= deals[_dealIndex].price;\n        hostFreezeBalances[msg.sender] += deals[_dealIndex].price;\n        \n        deals[_dealIndex].status = DEAL_STATUS_HOST_ACCEPTED;\n    }\n\n    function userCancelled (uint _dealIndex) public {\n        require(deals[_dealIndex].userAddress == msg.sender);\n        require(deals[_dealIndex].status == DEAL_STATUS_PENDING);\n\n        userFreezeBalances[msg.sender] -= deals[_dealIndex].price;\n        userBalances[msg.sender] += deals[_dealIndex].price;\n\n        deals[_dealIndex].status = DEAL_STATUS_USER_CANCELLED;\n        DealCancelled();\n    }\n\n    function hostCancelled (uint _dealIndex) public {\n        require(deals[_dealIndex].hostAddress == msg.sender);\n        require(deals[_dealIndex].status == DEAL_STATUS_PENDING);\n\n        userFreezeBalances[msg.sender] -= deals[_dealIndex].price;\n        userBalances[msg.sender] += deals[_dealIndex].price;\n\n        hostFreezeBalances[msg.sender] -= deals[_dealIndex].depositePrice;\n        hostBalances[msg.sender] += deals[_dealIndex].depositePrice;\n\n        deals[_dealIndex].status = DEAL_STATUS_HOST_CANCELLED;\n        DealCancelled();\n    }\n\n    // user violated transfer money for host\n    function userViolated (uint _dealIndex) ownerOnly public {\n        require(deals[_dealIndex].status == DEAL_STATUS_HOST_ACCEPTED);\n\n        hostFreezeBalances[deals[_dealIndex].hostAddress] -= deals[_dealIndex].depositePrice;\n        hostBalances[deals[_dealIndex].hostAddress] += deals[_dealIndex].depositePrice;\n\n        userFreezeBalances[deals[_dealIndex].userAddress] -= deals[_dealIndex].depositePrice;\n        hostBalances[deals[_dealIndex].hostAddress] += deals[_dealIndex].depositePrice;\n\n        userFreezeBalances[deals[_dealIndex].userAddress] -= deals[_dealIndex].payLaterPrice;\n        userBalances[deals[_dealIndex].userAddress] += deals[_dealIndex].payLaterPrice;\n\n        deals[_dealIndex].status = DEAL_STATUS_USER_VIOLATED;\n        DealViolated();\n    }\n\n    function hostViolated (uint _dealIndex) ownerOnly public {\n        require(deals[_dealIndex].status == DEAL_STATUS_HOST_ACCEPTED);\n\n        hostFreezeBalances[deals[_dealIndex].hostAddress] -= deals[_dealIndex].depositePrice;\n        userBalances[deals[_dealIndex].userAddress] += deals[_dealIndex].depositePrice;\n\n        userFreezeBalances[deals[_dealIndex].userAddress] -= deals[_dealIndex].depositePrice;\n        userBalances[deals[_dealIndex].userAddress] += deals[_dealIndex].depositePrice;\n\n        userFreezeBalances[deals[_dealIndex].userAddress] -= deals[_dealIndex].payLaterPrice;\n        userBalances[deals[_dealIndex].userAddress] += deals[_dealIndex].payLaterPrice;\n\n        deals[_dealIndex].status = DEAL_STATUS_HOST_VIOLATED;\n        DealViolated();\n    }\n\n    function getUserBalance(address _userAddress) constant public returns (uint) {\n        return userBalances[_userAddress];\n    }\n\n    function getHostBalance(address _hostAddress) constant public returns (uint) {\n        return userBalances[_hostAddress];\n    }    \n}\n",
  "sourcePath": "/Users/Apple/Sites/blockathon2017-team3/contracts/Deal.sol",
  "compiler": {
    "name": "solc",
    "version": "0.4.18+commit.9cf6e910.Emscripten.clang"
  },
  "schemaVersion": "1.0.1",
  "updatedAt": "2017-11-25T10:17:03.798Z"
}