{
  "contractName": "P2Gether",
  "abi": [
    {
      "constant": false,
      "inputs": [
        {
          "name": "_planIndex",
          "type": "uint256"
        }
      ],
      "name": "finishPlan",
      "outputs": [
        {
          "name": "",
          "type": "bool"
        }
      ],
      "payable": true,
      "stateMutability": "payable",
      "type": "function"
    },
    {
      "constant": false,
      "inputs": [
        {
          "name": "_planIndex",
          "type": "uint256"
        }
      ],
      "name": "cancelPlan",
      "outputs": [
        {
          "name": "",
          "type": "bool"
        }
      ],
      "payable": true,
      "stateMutability": "payable",
      "type": "function"
    },
    {
      "constant": false,
      "inputs": [
        {
          "name": "_planIndex",
          "type": "uint256"
        }
      ],
      "name": "joinPlan",
      "outputs": [
        {
          "name": "",
          "type": "bool"
        },
        {
          "name": "",
          "type": "address[]"
        },
        {
          "name": "",
          "type": "uint256"
        }
      ],
      "payable": true,
      "stateMutability": "payable",
      "type": "function"
    },
    {
      "constant": true,
      "inputs": [],
      "name": "owner",
      "outputs": [
        {
          "name": "",
          "type": "address"
        }
      ],
      "payable": false,
      "stateMutability": "view",
      "type": "function"
    },
    {
      "constant": false,
      "inputs": [],
      "name": "createPlan",
      "outputs": [
        {
          "name": "",
          "type": "bool"
        },
        {
          "name": "",
          "type": "address[]"
        },
        {
          "name": "",
          "type": "uint256"
        }
      ],
      "payable": true,
      "stateMutability": "payable",
      "type": "function"
    },
    {
      "inputs": [],
      "payable": false,
      "stateMutability": "nonpayable",
      "type": "constructor"
    },
    {
      "anonymous": false,
      "inputs": [],
      "name": "PlanCreated",
      "type": "event"
    },
    {
      "anonymous": false,
      "inputs": [],
      "name": "PlanJoined",
      "type": "event"
    },
    {
      "anonymous": false,
      "inputs": [],
      "name": "PlanCancelled",
      "type": "event"
    }
  ],
  "bytecode": "0x6060604052341561000f57600080fd5b336000806101000a81548173ffffffffffffffffffffffffffffffffffffffff021916908373ffffffffffffffffffffffffffffffffffffffff160217905550610fd58061005e6000396000f30060606040526004361061006d576000357c0100000000000000000000000000000000000000000000000000000000900463ffffffff1680635dd9c02b1461007257806380d6664c146100a257806384e90760146100d25780638da5cb5b14610102578063e3d3af6e14610157575b600080fd5b6100886004808035906020019091905050610179565b604051808215151515815260200191505060405180910390f35b6100b86004808035906020019091905050610302565b604051808215151515815260200191505060405180910390f35b6100e86004808035906020019091905050610995565b604051808215151515815260200191505060405180910390f35b341561010d57600080fd5b610115610b07565b604051808273ffffffffffffffffffffffffffffffffffffffff1673ffffffffffffffffffffffffffffffffffffffff16815260200191505060405180910390f35b61015f610b2c565b604051808215151515815260200191505060405180910390f35b60008060009054906101000a900473ffffffffffffffffffffffffffffffffffffffff1673ffffffffffffffffffffffffffffffffffffffff163373ffffffffffffffffffffffffffffffffffffffff161415156101d657600080fd5b60006001838154811015156101e757fe5b90600052602060002090600602016005015414151561020557600080fd5b60018281548110151561021457fe5b9060005260206000209060060201600401544211151561023357600080fd5b60018281548110151561024257fe5b906000526020600020906006020160000160009054906101000a900473ffffffffffffffffffffffffffffffffffffffff1673ffffffffffffffffffffffffffffffffffffffff166108fc60018481548110151561029c57fe5b9060005260206000209060060201600301549081150290604051600060405180830381858888f1935050505015156102d357600080fd5b60026001838154811015156102e457fe5b90600052602060002090600602016005018190555060019050919050565b6000806000806000806000610315610d24565b600060018a81548110151561032657fe5b90600052602060002090600602016005015414151561034457600080fd5b6000965060009550600094505b60018981548110151561036057fe5b9060005260206000209060060201600101805490508510156104215760018981548110151561038b57fe5b9060005260206000209060060201600101858154811015156103a957fe5b906000526020600020900160009054906101000a900473ffffffffffffffffffffffffffffffffffffffff1673ffffffffffffffffffffffffffffffffffffffff163373ffffffffffffffffffffffffffffffffffffffff1614156104145760019650849550610421565b8480600101955050610351565b6001151587151514151561043457600080fd5b60018981548110151561044357fe5b906000526020600020906006020160000160009054906101000a900473ffffffffffffffffffffffffffffffffffffffff1673ffffffffffffffffffffffffffffffffffffffff163373ffffffffffffffffffffffffffffffffffffffff161415610765576001808a8154811015156104b857fe5b9060005260206000209060060201600101805490501415610578576001898154811015156104e257fe5b906000526020600020906006020160000160009054906101000a900473ffffffffffffffffffffffffffffffffffffffff1673ffffffffffffffffffffffffffffffffffffffff166108fc60018b81548110151561053c57fe5b9060005260206000209060060201600301549081150290604051600060405180830381858888f19350505050151561057357600080fd5b610764565b6001808a81548110151561058857fe5b9060005260206000209060060201600101805490500360018a8154811015156105ad57fe5b9060005260206000209060060201600301548115156105c857fe5b0693508360018a8154811015156105db57fe5b9060005260206000209060060201600301540392506001808a81548110151561060057fe5b906000526020600020906006020160010180549050038381151561062057fe5b049150600194505b60018981548110151561063757fe5b9060005260206000209060060201600101805490508510156106f85760018981548110151561066257fe5b90600052602060002090600602016001018581548110151561068057fe5b906000526020600020900160009054906101000a900473ffffffffffffffffffffffffffffffffffffffff1673ffffffffffffffffffffffffffffffffffffffff166108fc839081150290604051600060405180830381858888f1935050505015156106eb57600080fd5b8480600101955050610628565b6000841115610763576000809054906101000a900473ffffffffffffffffffffffffffffffffffffffff1673ffffffffffffffffffffffffffffffffffffffff166108fc859081150290604051600060405180830381858888f19350505050151561076257600080fd5b5b5b5b60018981548110151561077457fe5b906000526020600020906006020160010180548060200260200160405190810160405280929190818152602001828054801561080557602002820191906000526020600020905b8160009054906101000a900473ffffffffffffffffffffffffffffffffffffffff1673ffffffffffffffffffffffffffffffffffffffff16815260200190600101908083116107bb575b50505050509050600060405180591061081b5750595b908082528060200260200182016040525060018a81548110151561083b57fe5b9060005260206000209060060201600101908051906020019061085f929190610d38565b50600094505b8051851015610960573373ffffffffffffffffffffffffffffffffffffffff16818781518110151561089357fe5b9060200190602002015173ffffffffffffffffffffffffffffffffffffffff16141515610953576001898154811015156108c957fe5b906000526020600020906006020160010180548060010182816108ec9190610dc2565b91600052602060002090016000838981518110151561090757fe5b90602001906020020151909190916101000a81548173ffffffffffffffffffffffffffffffffffffffff021916908373ffffffffffffffffffffffffffffffffffffffff160217905550505b8480600101955050610865565b6001808a81548110151561097057fe5b9060005260206000209060060201600501819055506001975050505050505050919050565b60006001828154811015156109a657fe5b906000526020600020906006020160020154341415156109c557600080fd5b6001828154811015156109d457fe5b90600052602060002090600602016004015442111515156109f457600080fd5b6000600183815481101515610a0557fe5b906000526020600020906006020160050154141515610a2357600080fd5b600182815481101515610a3257fe5b90600052602060002090600602016001018054806001018281610a559190610dc2565b9160005260206000209001600033909190916101000a81548173ffffffffffffffffffffffffffffffffffffffff021916908373ffffffffffffffffffffffffffffffffffffffff1602179055505034600183815481101515610ab457fe5b9060005260206000209060060201600301600082825401925050819055507ff4573c165ce6661e32cfc1713250ce3729e675653e0cdba2e0826d39eeaca49d60405160405180910390a160019050919050565b6000809054906101000a900473ffffffffffffffffffffffffffffffffffffffff1681565b6000610b36610d24565b600034111515610b4557600080fd5b6000604051805910610b545750595b9080825280602002602001820160405250905060018054806001018281610b7b9190610dee565b9160005260206000209060060201600060c0604051908101604052803373ffffffffffffffffffffffffffffffffffffffff16815260200185815260200134815260200134815260200162093a80420181526020016000815250909190915060008201518160000160006101000a81548173ffffffffffffffffffffffffffffffffffffffff021916908373ffffffffffffffffffffffffffffffffffffffff1602179055506020820151816001019080519060200190610c3d929190610e20565b5060408201518160020155606082015181600301556080820151816004015560a08201518160050155505050600180808054905003815481101515610c7e57fe5b90600052602060002090600602016001018054806001018281610ca19190610dc2565b9160005260206000209001600033909190916101000a81548173ffffffffffffffffffffffffffffffffffffffff021916908373ffffffffffffffffffffffffffffffffffffffff160217905550507fd63771ce80cb53bb4d7cf1f2581e452db2655585369c45b7e7478a1a1aad199660405160405180910390a1600191505090565b602060405190810160405280600081525090565b828054828255906000526020600020908101928215610db1579160200282015b82811115610db05782518260006101000a81548173ffffffffffffffffffffffffffffffffffffffff021916908373ffffffffffffffffffffffffffffffffffffffff16021790555091602001919060010190610d58565b5b509050610dbe9190610eaa565b5090565b815481835581811511610de957818360005260206000209182019101610de89190610eed565b5b505050565b815481835581811511610e1b57600602816006028360005260206000209182019101610e1a9190610f12565b5b505050565b828054828255906000526020600020908101928215610e99579160200282015b82811115610e985782518260006101000a81548173ffffffffffffffffffffffffffffffffffffffff021916908373ffffffffffffffffffffffffffffffffffffffff16021790555091602001919060010190610e40565b5b509050610ea69190610eaa565b5090565b610eea91905b80821115610ee657600081816101000a81549073ffffffffffffffffffffffffffffffffffffffff021916905550600101610eb0565b5090565b90565b610f0f91905b80821115610f0b576000816000905550600101610ef3565b5090565b90565b610f8591905b80821115610f8157600080820160006101000a81549073ffffffffffffffffffffffffffffffffffffffff0219169055600182016000610f589190610f88565b600282016000905560038201600090556004820160009055600582016000905550600601610f18565b5090565b90565b5080546000825590600052602060002090810190610fa69190610eed565b505600a165627a7a72305820d8c7f187bfc5eed682b4153a5057504afcee250da228fcf7ef926bd01d1fc8e00029",
  "source": "pragma solidity ^0.4.15;\n\ncontract P2Gether {\n\n    /* Standard state variables */\n    address public owner;\n\n    struct Plan {\n        address hostAddress;\n        address[] joinList;\n        uint256 value;\n        uint256 total;\n        uint endTime;\n        uint status;\n    }\n\n    Plan[] plans;\n\n    uint constant PLAN_STAUS_WAITING = 0;\n    uint constant PLAN_STAUS_CANCELLED = 1;\n    uint constant PLAN_STAUS_FINISHED = 2;\n\n    /* Event */\n    event PlanCreated();\n    event PlanJoined();\n    event PlanCancelled();\n\n    /* Modifier */\n    modifier ownerOnly() {\n\t\trequire(msg.sender == owner);\n\t\t_;\n\t}\n\n    /* Constructor function, where owner set */\n    function P2Gether() public {\n        owner = msg.sender;\n    }\n\n    function createPlan() payable public returns (bool) {\n\n        require(msg.value > 0);\n\n        address[] memory joinList = new address[](0);\n\n        plans.push(Plan({\n            hostAddress : msg.sender,\n            joinList : joinList,\n            value: msg.value,\n            endTime: now + 1 weeks,\n            total : msg.value,\n            status : PLAN_STAUS_WAITING\n        }));\n\n        plans[plans.length-1].joinList.push(msg.sender);\n\n        PlanCreated();\n\n        return true;\n    }\n\n    function joinPlan(uint _planIndex) payable public returns (bool) {\n\n        require(msg.value == plans[_planIndex].value);\n        require(now <= plans[_planIndex].endTime);\n        require(plans[_planIndex].status == PLAN_STAUS_WAITING);\n\n        plans[_planIndex].joinList.push(msg.sender);\n        plans[_planIndex].total += msg.value;\n\n        PlanJoined();\n\n        return true;\n    }\n\n    // cancel plan\n    function cancelPlan(uint _planIndex) payable public returns (bool) {\n\n        require(plans[_planIndex].status == PLAN_STAUS_WAITING);\n\n        bool check = false;\n        uint index = 0;\n\n        for (uint i = 0; i < plans[_planIndex].joinList.length; i++) {\n            if (msg.sender == plans[_planIndex].joinList[i]) {\n                check = true;\n                index = i;\n                break;\n            }\n        }\n        require (check == true);\n\n        if (msg.sender == plans[_planIndex].hostAddress) {\n            if (plans[_planIndex].joinList.length == 1) {\n                plans[_planIndex].hostAddress.transfer(plans[_planIndex].total);\n            } else {\n                \n                uint surplus = plans[_planIndex].total % (plans[_planIndex].joinList.length - 1);\n                uint total = plans[_planIndex].total - surplus;\n                uint perShare = total / (plans[_planIndex].joinList.length - 1);\n                \n                for (i = 1; i < plans[_planIndex].joinList.length; i++) {\n                    plans[_planIndex].joinList[i].transfer(perShare);\n                }\n                \n                if (surplus > 0) {\n                    owner.transfer(surplus);\n                }\n            }\n        }\n\n        address[] memory joinList = plans[_planIndex].joinList;\n        plans[_planIndex].joinList = new address[](0);\n\n        for (i = 0; i < joinList.length; i++) {\n            if (joinList[index] != msg.sender) {\n                plans[_planIndex].joinList.push(joinList[index]);\n            }\n        }\n\n        plans[_planIndex].status = PLAN_STAUS_CANCELLED;\n\n        return true;\n    }\n\n    function finishPlan(uint _planIndex) payable public ownerOnly returns (bool) {\n        require(plans[_planIndex].status == PLAN_STAUS_WAITING);\n        require(now > plans[_planIndex].endTime);\n\n        plans[_planIndex].hostAddress.transfer(plans[_planIndex].total);  \n        plans[_planIndex].status = PLAN_STAUS_FINISHED;\n\n        return true;\n    }\n\n}\n",
  "sourcePath": "/Users/Apple/Sites/blockathon2017-team3/contracts/P2Gether.sol",
  "compiler": {
    "name": "solc",
    "version": "0.4.18+commit.9cf6e910.Emscripten.clang"
  },
  "schemaVersion": "1.0.1",
  "updatedAt": "2017-11-25T14:46:02.398Z"
}