{
  "contractName": "Voting",
  "abi": [
    {
      "constant": true,
      "inputs": [
        {
          "name": "candidateName",
          "type": "bytes32"
        }
      ],
      "name": "totalVoteFor",
      "outputs": [
        {
          "name": "",
          "type": "uint8"
        }
      ],
      "payable": false,
      "stateMutability": "view",
      "type": "function"
    },
    {
      "constant": false,
      "inputs": [
        {
          "name": "candidateName",
          "type": "bytes32"
        }
      ],
      "name": "voteFor",
      "outputs": [],
      "payable": false,
      "stateMutability": "nonpayable",
      "type": "function"
    },
    {
      "constant": true,
      "inputs": [
        {
          "name": "candidateName",
          "type": "bytes32"
        }
      ],
      "name": "validCandidate",
      "outputs": [
        {
          "name": "",
          "type": "bool"
        }
      ],
      "payable": false,
      "stateMutability": "view",
      "type": "function"
    },
    {
      "constant": true,
      "inputs": [
        {
          "name": "",
          "type": "bytes32"
        }
      ],
      "name": "votesReceived",
      "outputs": [
        {
          "name": "",
          "type": "uint8"
        }
      ],
      "payable": false,
      "stateMutability": "view",
      "type": "function"
    },
    {
      "constant": true,
      "inputs": [
        {
          "name": "",
          "type": "uint256"
        }
      ],
      "name": "candidateList",
      "outputs": [
        {
          "name": "",
          "type": "bytes32"
        }
      ],
      "payable": false,
      "stateMutability": "view",
      "type": "function"
    },
    {
      "inputs": [
        {
          "name": "_candidateList",
          "type": "bytes32[]"
        }
      ],
      "payable": false,
      "stateMutability": "nonpayable",
      "type": "constructor"
    }
  ],
  "bytecode": "0x6060604052341561000f57600080fd5b6040516103e03803806103e0833981016040528080518201919050508060019080519060200190610041929190610048565b50506100c0565b82805482825590600052602060002090810192821561008a579160200282015b82811115610089578251829060001916905591602001919060010190610068565b5b509050610097919061009b565b5090565b6100bd91905b808211156100b95760008160009055506001016100a1565b5090565b90565b610311806100cf6000396000f30060606040526004361061006d576000357c0100000000000000000000000000000000000000000000000000000000900463ffffffff16806314fd4fd11461007257806335154986146100b3578063392e6678146100da5780637021939f14610119578063b13c744b1461015a575b600080fd5b341561007d57600080fd5b610097600480803560001916906020019091905050610199565b604051808260ff1660ff16815260200191505060405180910390f35b34156100be57600080fd5b6100d86004808035600019169060200190919050506101de565b005b34156100e557600080fd5b6100ff60048080356000191690602001909190505061023b565b604051808215151515815260200191505060405180910390f35b341561012457600080fd5b61013e6004808035600019169060200190919050506102a1565b604051808260ff1660ff16815260200191505060405180910390f35b341561016557600080fd5b61017b60048080359060200190919050506102c1565b60405180826000191660001916815260200191505060405180910390f35b60006101a48261023b565b15156101af57600080fd5b600080836000191660001916815260200190815260200160002060009054906101000a900460ff169050919050565b6101e78161023b565b15156101f257600080fd5b6001600080836000191660001916815260200190815260200160002060008282829054906101000a900460ff160192506101000a81548160ff021916908360ff16021790555050565b600080600090505b6001805490508160ff16101561029657826000191660018260ff1681548110151561026a57fe5b906000526020600020900154600019161415610289576001915061029b565b8080600101915050610243565b600091505b50919050565b60006020528060005260406000206000915054906101000a900460ff1681565b6001818154811015156102d057fe5b906000526020600020900160009150905054815600a165627a7a72305820169d16b400ec1902fe61ee5135427afed70d701c2684b40e429650241fdfb4af0029",
  "source": "pragma solidity ^0.4.18;\n\ncontract Voting {\n  mapping (bytes32 => uint8) public votesReceived;\n  bytes32[] public candidateList;\n\n  function Voting(bytes32[] _candidateList) public {\n    candidateList = _candidateList;\n  }\n\n  function totalVoteFor(bytes32 candidateName) view public returns (uint8) {\n    require(validCandidate(candidateName));\n    return votesReceived[candidateName];\n  }\n\n  function voteFor(bytes32 candidateName) public {\n    require(validCandidate(candidateName));\n    votesReceived[candidateName] += 1;\n  }\n\n  function validCandidate(bytes32 candidateName) view public returns (bool) {\n    for (uint8 i = 0; i < candidateList.length; i++) {\n      if (candidateList[i] == candidateName) {\n        return true;\n      }\n    }\n    return false;\n  }\n}\n",
  "sourcePath": "/Users/Apple/Sites/blockchain/contracts/Voting.sol",
  "compiler": {
    "name": "solc",
    "version": "0.4.18+commit.9cf6e910.Emscripten.clang"
  },
  "schemaVersion": "1.0.1",
  "updatedAt": "2017-11-23T09:14:17.903Z"
}