{
  "contractName": "P2Gether",
  "abi": [
    {
      "constant": false,
      "inputs": [
        {
          "name": "_planIndex",
          "type": "uint256"
        }
      ],
      "name": "finishPlan",
      "outputs": [],
      "payable": false,
      "stateMutability": "nonpayable",
      "type": "function"
    },
    {
      "constant": false,
      "inputs": [
        {
          "name": "_planIndex",
          "type": "uint256"
        }
      ],
      "name": "cancelPlan",
      "outputs": [],
      "payable": false,
      "stateMutability": "nonpayable",
      "type": "function"
    },
    {
      "constant": false,
      "inputs": [
        {
          "name": "_planIndex",
          "type": "uint256"
        }
      ],
      "name": "joinPlan",
      "outputs": [
        {
          "name": "",
          "type": "address"
        },
        {
          "name": "",
          "type": "address[]"
        },
        {
          "name": "",
          "type": "uint256"
        }
      ],
      "payable": true,
      "stateMutability": "payable",
      "type": "function"
    },
    {
      "constant": true,
      "inputs": [],
      "name": "owner",
      "outputs": [
        {
          "name": "",
          "type": "address"
        }
      ],
      "payable": false,
      "stateMutability": "view",
      "type": "function"
    },
    {
      "constant": false,
      "inputs": [],
      "name": "createPlan",
      "outputs": [
        {
          "name": "",
          "type": "address"
        },
        {
          "name": "",
          "type": "address[]"
        },
        {
          "name": "",
          "type": "uint256"
        }
      ],
      "payable": true,
      "stateMutability": "payable",
      "type": "function"
    },
    {
      "inputs": [],
      "payable": false,
      "stateMutability": "nonpayable",
      "type": "constructor",
      "constant": false,
      "name": "test",
      "outputs": [
        {
          "name": "",
          "type": "uint256"
        }
      ]
    },
    {
      "anonymous": false,
      "inputs": [],
      "name": "PlanCreated",
      "type": "event",
      "payable": false,
      "stateMutability": "nonpayable"
    },
    {
      "anonymous": false,
      "inputs": [],
      "name": "PlanJoined",
      "type": "event"
    },
    {
      "anonymous": false,
      "inputs": [],
      "name": "PlanCancelled",
      "type": "event"
    },
    {
      "anonymous": false,
      "inputs": [],
      "name": "PlanCancelled",
      "type": "event"
    }
  ],
  "bytecode": "0x6060604052341561000f57600080fd5b336000806101000a81548173ffffffffffffffffffffffffffffffffffffffff021916908373ffffffffffffffffffffffffffffffffffffffff1602179055506111ea8061005e6000396000f30060606040526004361061006d576000357c0100000000000000000000000000000000000000000000000000000000900463ffffffff1680635dd9c02b1461007257806380d6664c1461009557806384e90760146100b85780638da5cb5b1461015f578063e3d3af6e146101b4575b600080fd5b341561007d57600080fd5b610093600480803590602001909190505061024d565b005b34156100a057600080fd5b6100b66004808035906020019091905050610379565b005b6100ce60048080359060200190919050506109b0565b604051808473ffffffffffffffffffffffffffffffffffffffff1673ffffffffffffffffffffffffffffffffffffffff16815260200180602001838152602001828103825284818151815260200191508051906020019060200280838360005b8381101561014957808201518184015260208101905061012e565b5050505090500194505050505060405180910390f35b341561016a57600080fd5b610172610c0b565b604051808273ffffffffffffffffffffffffffffffffffffffff1673ffffffffffffffffffffffffffffffffffffffff16815260200191505060405180910390f35b6101bc610c30565b604051808473ffffffffffffffffffffffffffffffffffffffff1673ffffffffffffffffffffffffffffffffffffffff16815260200180602001838152602001828103825284818151815260200191508051906020019060200280838360005b8381101561023757808201518184015260208101905061021c565b5050505090500194505050505060405180910390f35b6000809054906101000a900473ffffffffffffffffffffffffffffffffffffffff1673ffffffffffffffffffffffffffffffffffffffff163373ffffffffffffffffffffffffffffffffffffffff161415156102a857600080fd5b6001818154811015156102b757fe5b906000526020600020906005020160040154421115156102d657600080fd5b6001818154811015156102e557fe5b906000526020600020906005020160000160009054906101000a900473ffffffffffffffffffffffffffffffffffffffff1673ffffffffffffffffffffffffffffffffffffffff166108fc60018381548110151561033f57fe5b9060005260206000209060050201600301549081150290604051600060405180830381858888f19350505050151561037657600080fd5b50565b60008060008060008061038a610f41565b6000965060009550600094505b6001888154811015156103a657fe5b906000526020600020906005020160010180549050851015610467576001888154811015156103d157fe5b9060005260206000209060050201600101858154811015156103ef57fe5b906000526020600020900160009054906101000a900473ffffffffffffffffffffffffffffffffffffffff1673ffffffffffffffffffffffffffffffffffffffff163373ffffffffffffffffffffffffffffffffffffffff16141561045a5760019650849550610467565b8480600101955050610397565b6001151587151514151561047a57600080fd5b60018881548110151561048957fe5b906000526020600020906005020160000160009054906101000a900473ffffffffffffffffffffffffffffffffffffffff1673ffffffffffffffffffffffffffffffffffffffff163373ffffffffffffffffffffffffffffffffffffffff1614156107ab57600180898154811015156104fe57fe5b90600052602060002090600502016001018054905014156105be5760018881548110151561052857fe5b906000526020600020906005020160000160009054906101000a900473ffffffffffffffffffffffffffffffffffffffff1673ffffffffffffffffffffffffffffffffffffffff166108fc60018a81548110151561058257fe5b9060005260206000209060050201600301549081150290604051600060405180830381858888f1935050505015156105b957600080fd5b6107aa565b600180898154811015156105ce57fe5b906000526020600020906005020160010180549050036001898154811015156105f357fe5b90600052602060002090600502016003015481151561060e57fe5b0693508360018981548110151561062157fe5b9060005260206000209060050201600301540392506001808981548110151561064657fe5b906000526020600020906005020160010180549050038381151561066657fe5b049150600194505b60018881548110151561067d57fe5b90600052602060002090600502016001018054905085101561073e576001888154811015156106a857fe5b9060005260206000209060050201600101858154811015156106c657fe5b906000526020600020900160009054906101000a900473ffffffffffffffffffffffffffffffffffffffff1673ffffffffffffffffffffffffffffffffffffffff166108fc839081150290604051600060405180830381858888f19350505050151561073157600080fd5b848060010195505061066e565b60008411156107a9576000809054906101000a900473ffffffffffffffffffffffffffffffffffffffff1673ffffffffffffffffffffffffffffffffffffffff166108fc859081150290604051600060405180830381858888f1935050505015156107a857600080fd5b5b5b5b6001888154811015156107ba57fe5b906000526020600020906005020160010180548060200260200160405190810160405280929190818152602001828054801561084b57602002820191906000526020600020905b8160009054906101000a900473ffffffffffffffffffffffffffffffffffffffff1673ffffffffffffffffffffffffffffffffffffffff1681526020019060010190808311610801575b5050505050905060006040518059106108615750595b908082528060200260200182016040525060018981548110151561088157fe5b906000526020600020906005020160010190805190602001906108a5929190610f55565b50600094505b80518510156109a6573373ffffffffffffffffffffffffffffffffffffffff1681878151811015156108d957fe5b9060200190602002015173ffffffffffffffffffffffffffffffffffffffff161415156109995760018881548110151561090f57fe5b906000526020600020906005020160010180548060010182816109329190610fdf565b91600052602060002090016000838981518110151561094d57fe5b90602001906020020151909190916101000a81548173ffffffffffffffffffffffffffffffffffffffff021916908373ffffffffffffffffffffffffffffffffffffffff160217905550505b84806001019550506108ab565b5050505050505050565b60006109ba610f41565b60006001848154811015156109cb57fe5b906000526020600020906005020160020154341415156109ea57600080fd5b6001848154811015156109f957fe5b9060005260206000209060050201600401544211151515610a1957600080fd5b600184815481101515610a2857fe5b90600052602060002090600502016001018054806001018281610a4b9190610fdf565b9160005260206000209001600033909190916101000a81548173ffffffffffffffffffffffffffffffffffffffff021916908373ffffffffffffffffffffffffffffffffffffffff1602179055505034600185815481101515610aaa57fe5b9060005260206000209060050201600301600082825401925050819055507ff4573c165ce6661e32cfc1713250ce3729e675653e0cdba2e0826d39eeaca49d60405160405180910390a1600184815481101515610b0357fe5b906000526020600020906005020160000160009054906101000a900473ffffffffffffffffffffffffffffffffffffffff16600185815481101515610b4457fe5b9060005260206000209060050201600101600186815481101515610b6457fe5b90600052602060002090600502016002015481805480602002602001604051908101604052809291908181526020018280548015610bf757602002820191906000526020600020905b8160009054906101000a900473ffffffffffffffffffffffffffffffffffffffff1673ffffffffffffffffffffffffffffffffffffffff1681526020019060010190808311610bad575b505050505091509250925092509193909250565b6000809054906101000a900473ffffffffffffffffffffffffffffffffffffffff1681565b6000610c3a610f41565b6000610c44610f41565b600034111515610c5357600080fd5b6000604051805910610c625750595b9080825280602002602001820160405250905060018054806001018281610c89919061100b565b9160005260206000209060050201600060a0604051908101604052803373ffffffffffffffffffffffffffffffffffffffff16815260200185815260200134815260200134815260200162093a804201815250909190915060008201518160000160006101000a81548173ffffffffffffffffffffffffffffffffffffffff021916908373ffffffffffffffffffffffffffffffffffffffff1602179055506020820151816001019080519060200190610d4492919061103d565b50604082015181600201556060820151816003015560808201518160040155505050600180808054905003815481101515610d7b57fe5b90600052602060002090600502016001018054806001018281610d9e9190610fdf565b9160005260206000209001600033909190916101000a81548173ffffffffffffffffffffffffffffffffffffffff021916908373ffffffffffffffffffffffffffffffffffffffff160217905550507fd63771ce80cb53bb4d7cf1f2581e452db2655585369c45b7e7478a1a1aad199660405160405180910390a1600180808054905003815481101515610e2e57fe5b906000526020600020906005020160000160009054906101000a900473ffffffffffffffffffffffffffffffffffffffff16600180808054905003815481101515610e7557fe5b9060005260206000209060050201600101600180808054905003815481101515610e9b57fe5b90600052602060002090600502016002015481805480602002602001604051908101604052809291908181526020018280548015610f2e57602002820191906000526020600020905b8160009054906101000a900473ffffffffffffffffffffffffffffffffffffffff1673ffffffffffffffffffffffffffffffffffffffff1681526020019060010190808311610ee4575b5050505050915093509350935050909192565b602060405190810160405280600081525090565b828054828255906000526020600020908101928215610fce579160200282015b82811115610fcd5782518260006101000a81548173ffffffffffffffffffffffffffffffffffffffff021916908373ffffffffffffffffffffffffffffffffffffffff16021790555091602001919060010190610f75565b5b509050610fdb91906110c7565b5090565b81548183558181151161100657818360005260206000209182019101611005919061110a565b5b505050565b81548183558181151161103857600502816005028360005260206000209182019101611037919061112f565b5b505050565b8280548282559060005260206000209081019282156110b6579160200282015b828111156110b55782518260006101000a81548173ffffffffffffffffffffffffffffffffffffffff021916908373ffffffffffffffffffffffffffffffffffffffff1602179055509160200191906001019061105d565b5b5090506110c391906110c7565b5090565b61110791905b8082111561110357600081816101000a81549073ffffffffffffffffffffffffffffffffffffffff0219169055506001016110cd565b5090565b90565b61112c91905b80821115611128576000816000905550600101611110565b5090565b90565b61119a91905b8082111561119657600080820160006101000a81549073ffffffffffffffffffffffffffffffffffffffff0219169055600182016000611175919061119d565b60028201600090556003820160009055600482016000905550600501611135565b5090565b90565b50805460008255906000526020600020908101906111bb919061110a565b505600a165627a7a72305820809de0085c87a63ce94101a98446ca11ec5d00168105ad65d253828beaba03bf0029",
  "source": "pragma solidity ^0.4.15;\n\ncontract P2Gether {\n\n    /* Standard state variables */\n    address public owner;\n\n    struct Plan {\n        address hostAddress;\n        address[] joinList;\n        uint256 value;\n        uint256 total;\n        uint endTime;\n    }\n\n    Plan[] plans;\n\n    uint constant PLAN_STAUS_WAITING = 0;\n    uint constant PLAN_STAUS_CANCELLED = 1;\n    uint constant PLAN_STAUS_FINISHED = 2;\n\n    /* Event */\n    event PlanCreated();\n    event PlanJoined();\n    event PlanCancelled();\n\n    /* Modifier */\n    modifier ownerOnly() {\n\t\trequire(msg.sender == owner);\n\t\t_;\n\t}\n\n    /* Constructor function, where owner set */\n    function P2Gether() public {\n        owner = msg.sender;\n    }\n\n    function createPlan() payable public returns (address, address[], uint256) {\n\n        require(msg.value > 0);\n\n        address[] memory joinList = new address[](0);\n\n        plans.push(Plan({\n            hostAddress : msg.sender,\n            joinList : joinList,\n            value: msg.value,\n            endTime: now + 1 weeks,\n            total : msg.value\n        }));\n\n        plans[plans.length-1].joinList.push(msg.sender);\n\n        PlanCreated();\n\n        return (\n            plans[plans.length-1].hostAddress, \n            plans[plans.length-1].joinList,\n            plans[plans.length-1].value\n        );\n\n    }\n\n    function joinPlan(uint _planIndex) payable public returns (address, address[], uint256) {\n        require(msg.value == plans[_planIndex].value);\n        require(now <= plans[_planIndex].endTime);\n        plans[_planIndex].joinList.push(msg.sender);\n        plans[_planIndex].total += msg.value;\n\n        PlanJoined();\n\n        return (\n            plans[_planIndex].hostAddress, \n            plans[_planIndex].joinList,\n            plans[_planIndex].value\n        );\n    }\n\n    // cancel plan\n    function cancelPlan(uint _planIndex) public {\n\n        bool check = false;\n        uint index = 0;\n\n        for (uint i = 0; i < plans[_planIndex].joinList.length; i++) {\n            if (msg.sender == plans[_planIndex].joinList[i]) {\n                check = true;\n                index = i;\n                break;\n            }\n        }\n        require (check == true);\n\n        if (msg.sender == plans[_planIndex].hostAddress) {\n            if (plans[_planIndex].joinList.length == 1) {\n                plans[_planIndex].hostAddress.transfer(plans[_planIndex].total);\n            } else {\n                \n                uint surplus = plans[_planIndex].total % (plans[_planIndex].joinList.length - 1);\n                uint total = plans[_planIndex].total - surplus;\n                uint perShare = total / (plans[_planIndex].joinList.length - 1);\n                \n                for (i = 1; i < plans[_planIndex].joinList.length; i++) {\n                    plans[_planIndex].joinList[i].transfer(perShare);\n                }\n                \n                if (surplus > 0) {\n                    owner.transfer(surplus);\n                }\n            }\n        }\n\n        address[] memory joinList = plans[_planIndex].joinList;\n        plans[_planIndex].joinList = new address[](0);\n\n        for (i = 0; i < joinList.length; i++) {\n            if (joinList[index] != msg.sender) {\n                plans[_planIndex].joinList.push(joinList[index]);\n            }\n        }\n\n    }\n\n    function finishPlan(uint _planIndex) public ownerOnly {\n        require(now > plans[_planIndex].endTime);\n\n        plans[_planIndex].hostAddress.transfer(plans[_planIndex].total);  \n    }\n\n}\n",
  "sourcePath": "/Users/fanz/Project/Blockathon/blockathon2017-team3/contracts/P2Gether.sol",
  "compiler": {
    "name": "solc",
    "version": "0.4.18+commit.9cf6e910.Emscripten.clang"
  },
  "schemaVersion": "1.0.1",
  "updatedAt": "2017-11-25T13:18:25.868Z"
}