{
  "contractName": "P2Gether",
  "abi": [
    {
      "constant": false,
      "inputs": [
        {
          "name": "planId",
          "type": "bytes"
        }
      ],
      "name": "cancelPlan",
      "outputs": [
        {
          "name": "",
          "type": "bool"
        }
      ],
      "payable": true,
      "stateMutability": "payable",
      "type": "function"
    },
    {
      "constant": false,
      "inputs": [
        {
          "name": "planId",
          "type": "bytes"
        }
      ],
      "name": "joinPlan",
      "outputs": [
        {
          "name": "",
          "type": "bool"
        }
      ],
      "payable": true,
      "stateMutability": "payable",
      "type": "function"
    },
    {
      "constant": false,
      "inputs": [
        {
          "name": "planId",
          "type": "bytes"
        }
      ],
      "name": "createPlan",
      "outputs": [
        {
          "name": "",
          "type": "bool"
        }
      ],
      "payable": true,
      "stateMutability": "payable",
      "type": "function"
    },
    {
      "constant": true,
      "inputs": [],
      "name": "owner",
      "outputs": [
        {
          "name": "",
          "type": "address"
        }
      ],
      "payable": false,
      "stateMutability": "view",
      "type": "function"
    },
    {
      "constant": false,
      "inputs": [
        {
          "name": "planId",
          "type": "bytes"
        }
      ],
      "name": "startPlan",
      "outputs": [
        {
          "name": "",
          "type": "bool"
        }
      ],
      "payable": true,
      "stateMutability": "payable",
      "type": "function"
    },
    {
      "inputs": [],
      "payable": false,
      "stateMutability": "nonpayable",
      "type": "constructor"
    },
    {
      "anonymous": false,
      "inputs": [],
      "name": "PlanCreated",
      "type": "event"
    },
    {
      "anonymous": false,
      "inputs": [],
      "name": "PlanJoined",
      "type": "event"
    },
    {
      "anonymous": false,
      "inputs": [],
      "name": "PlanCancelled",
      "type": "event"
    },
    {
      "anonymous": false,
      "inputs": [],
      "name": "PlanStarted",
      "type": "event"
    }
  ],
  "bytecode": "0x6060604052341561000f57600080fd5b336000806101000a81548173ffffffffffffffffffffffffffffffffffffffff021916908373ffffffffffffffffffffffffffffffffffffffff160217905550611aa98061005e6000396000f30060606040526004361061006d576000357c0100000000000000000000000000000000000000000000000000000000900463ffffffff1680630f9e109b14610072578063239e8662146100dc5780632d59d6fb146101465780638da5cb5b146101b0578063c44764fb14610205575b600080fd5b6100c2600480803590602001908201803590602001908080601f0160208091040260200160405190810160405280939291908181526020018383808284378201915050505050509190505061026f565b604051808215151515815260200191505060405180910390f35b61012c600480803590602001908201803590602001908080601f01602080910402602001604051908101604052809392919081815260200183838082843782019150505050505091905050610e30565b604051808215151515815260200191505060405180910390f35b610196600480803590602001908201803590602001908080601f016020809104026020016040519081016040528093929190818152602001838380828437820191505050505050919050506111a5565b604051808215151515815260200191505060405180910390f35b34156101bb57600080fd5b6101c36114f4565b604051808273ffffffffffffffffffffffffffffffffffffffff1673ffffffffffffffffffffffffffffffffffffffff16815260200191505060405180910390f35b610255600480803590602001908201803590602001908080601f01602080910402602001604051908101604052809392919081815260200183838082843782019150505050505091905050611519565b604051808215151515815260200191505060405180910390f35b60008060008060008060006102826118c1565b600060018a6040518082805190602001908083835b6020831015156102bc5780518252602082019150602081019050602083039250610297565b6001836020036101000a0380198251168184511680821785525050505050509050019150509081526020016040518091039020600601541415156102ff57600080fd5b6000965060009550600094505b6001896040518082805190602001908083835b602083101515610344578051825260208201915060208101905060208303925061031f565b6001836020036101000a038019825116818451168082178552505050505050905001915050908152602001604051809103902060010180549050851015610478576001896040518082805190602001908083835b6020831015156103bd5780518252602082019150602081019050602083039250610398565b6001836020036101000a03801982511681845116808217855250505050505090500191505090815260200160405180910390206001018581548110151561040057fe5b906000526020600020900160009054906101000a900473ffffffffffffffffffffffffffffffffffffffff1673ffffffffffffffffffffffffffffffffffffffff163373ffffffffffffffffffffffffffffffffffffffff16141561046b5760019650849550610478565b848060010195505061030c565b6001151587151514151561048b57600080fd5b6001896040518082805190602001908083835b6020831015156104c3578051825260208201915060208101905060208303925061049e565b6001836020036101000a038019825116818451168082178552505050505050905001915050908152602001604051809103902060000160009054906101000a900473ffffffffffffffffffffffffffffffffffffffff1673ffffffffffffffffffffffffffffffffffffffff163373ffffffffffffffffffffffffffffffffffffffff161415610ac8576001808a6040518082805190602001908083835b6020831015156105865780518252602082019150602081019050602083039250610561565b6001836020036101000a0380198251168184511680821785525050505050509050019150509081526020016040518091039020600101805490501415610707576001896040518082805190602001908083835b6020831015156105fe57805182526020820191506020810190506020830392506105d9565b6001836020036101000a038019825116818451168082178552505050505050905001915050908152602001604051809103902060000160009054906101000a900473ffffffffffffffffffffffffffffffffffffffff1673ffffffffffffffffffffffffffffffffffffffff166108fc60018b6040518082805190602001908083835b6020831015156106a65780518252602082019150602081019050602083039250610681565b6001836020036101000a0380198251168184511680821785525050505050509050019150509081526020016040518091039020600401549081150290604051600060405180830381858888f19350505050151561070257600080fd5b610ac7565b6001808a6040518082805190602001908083835b602083101515610740578051825260208201915060208101905060208303925061071b565b6001836020036101000a0380198251168184511680821785525050505050509050019150509081526020016040518091039020600101805490500360018a6040518082805190602001908083835b6020831015156107b3578051825260208201915060208101905060208303925061078e565b6001836020036101000a0380198251168184511680821785525050505050509050019150509081526020016040518091039020600401548115156107f357fe5b0693508360018a6040518082805190602001908083835b60208310151561082f578051825260208201915060208101905060208303925061080a565b6001836020036101000a0380198251168184511680821785525050505050509050019150509081526020016040518091039020600401540392506001808a6040518082805190602001908083835b6020831015156108a2578051825260208201915060208101905060208303925061087d565b6001836020036101000a03801982511681845116808217855250505050505090500191505090815260200160405180910390206001018054905003838115156108e757fe5b049150600194505b6001896040518082805190602001908083835b6020831015156109275780518252602082019150602081019050602083039250610902565b6001836020036101000a038019825116818451168082178552505050505050905001915050908152602001604051809103902060010180549050851015610a5b576001896040518082805190602001908083835b6020831015156109a0578051825260208201915060208101905060208303925061097b565b6001836020036101000a0380198251168184511680821785525050505050509050019150509081526020016040518091039020600101858154811015156109e357fe5b906000526020600020900160009054906101000a900473ffffffffffffffffffffffffffffffffffffffff1673ffffffffffffffffffffffffffffffffffffffff166108fc839081150290604051600060405180830381858888f193505050501515610a4e57600080fd5b84806001019550506108ef565b6000841115610ac6576000809054906101000a900473ffffffffffffffffffffffffffffffffffffffff1673ffffffffffffffffffffffffffffffffffffffff166108fc859081150290604051600060405180830381858888f193505050501515610ac557600080fd5b5b5b5b6001896040518082805190602001908083835b602083101515610b005780518252602082019150602081019050602083039250610adb565b6001836020036101000a0380198251168184511680821785525050505050509050019150509081526020016040518091039020600101805480602002602001604051908101604052809291908181526020018280548015610bb657602002820191906000526020600020905b8160009054906101000a900473ffffffffffffffffffffffffffffffffffffffff1673ffffffffffffffffffffffffffffffffffffffff1681526020019060010190808311610b6c575b505050505090506000604051805910610bcc5750595b908082528060200260200182016040525060018a6040518082805190602001908083835b602083101515610c155780518252602082019150602081019050602083039250610bf0565b6001836020036101000a03801982511681845116808217855250505050505090500191505090815260200160405180910390206001019080519060200190610c5e9291906118d5565b50600094505b8051851015610dad573373ffffffffffffffffffffffffffffffffffffffff168187815181101515610c9257fe5b9060200190602002015173ffffffffffffffffffffffffffffffffffffffff16141515610da0576001896040518082805190602001908083835b602083101515610cf15780518252602082019150602081019050602083039250610ccc565b6001836020036101000a03801982511681845116808217855250505050505090500191505090815260200160405180910390206001018054806001018281610d39919061195f565b916000526020600020900160008389815181101515610d5457fe5b90602001906020020151909190916101000a81548173ffffffffffffffffffffffffffffffffffffffff021916908373ffffffffffffffffffffffffffffffffffffffff160217905550505b8480600101955050610c64565b6001808a6040518082805190602001908083835b602083101515610de65780518252602082019150602081019050602083039250610dc1565b6001836020036101000a0380198251168184511680821785525050505050509050019150509081526020016040518091039020600601819055506001975050505050505050919050565b6000806001836040518082805190602001908083835b602083101515610e6b5780518252602082019150602081019050602083039250610e46565b6001836020036101000a03801982511681845116808217855250505050505090500191505090815260200160405180910390206004015414151515610eaf57600080fd5b6001826040518082805190602001908083835b602083101515610ee75780518252602082019150602081019050602083039250610ec2565b6001836020036101000a03801982511681845116808217855250505050505090500191505090815260200160405180910390206003015434141515610f2b57600080fd5b6001826040518082805190602001908083835b602083101515610f635780518252602082019150602081019050602083039250610f3e565b6001836020036101000a0380198251168184511680821785525050505050509050019150509081526020016040518091039020600501544211151515610fa857600080fd5b60006001836040518082805190602001908083835b602083101515610fe25780518252602082019150602081019050602083039250610fbd565b6001836020036101000a03801982511681845116808217855250505050505090500191505090815260200160405180910390206006015414151561102557600080fd5b6001826040518082805190602001908083835b60208310151561105d5780518252602082019150602081019050602083039250611038565b6001836020036101000a038019825116818451168082178552505050505050905001915050908152602001604051809103902060010180548060010182816110a5919061195f565b9160005260206000209001600033909190916101000a81548173ffffffffffffffffffffffffffffffffffffffff021916908373ffffffffffffffffffffffffffffffffffffffff16021790555050346001836040518082805190602001908083835b60208310151561112d5780518252602082019150602081019050602083039250611108565b6001836020036101000a0380198251168184511680821785525050505050509050019150509081526020016040518091039020600401600082825401925050819055507ff4573c165ce6661e32cfc1713250ce3729e675653e0cdba2e0826d39eeaca49d60405160405180910390a160019050919050565b60006111af6118c1565b6111b76118c1565b6000341115156111c657600080fd5b60006001856040518082805190602001908083835b60208310151561120057805182526020820191506020810190506020830392506111db565b6001836020036101000a03801982511681845116808217855250505050505090500191505090815260200160405180910390206004015414151561124357600080fd5b60006040518059106112525750595b9080825280602002602001820160405250915060006040518059106112745750595b9080825280602002602001820160405250905060e0604051908101604052803373ffffffffffffffffffffffffffffffffffffffff16815260200183815260200182815260200134815260200134815260200162093a804201815260200160008152506001856040518082805190602001908083835b60208310151561130f57805182526020820191506020810190506020830392506112ea565b6001836020036101000a038019825116818451168082178552505050505050905001915050908152602001604051809103902060008201518160000160006101000a81548173ffffffffffffffffffffffffffffffffffffffff021916908373ffffffffffffffffffffffffffffffffffffffff16021790555060208201518160010190805190602001906113a592919061198b565b5060408201518160020190805190602001906113c292919061198b565b50606082015181600301556080820151816004015560a0820151816005015560c082015181600601559050506001846040518082805190602001908083835b6020831015156114265780518252602082019150602081019050602083039250611401565b6001836020036101000a0380198251168184511680821785525050505050509050019150509081526020016040518091039020600101805480600101828161146e919061195f565b9160005260206000209001600033909190916101000a81548173ffffffffffffffffffffffffffffffffffffffff021916908373ffffffffffffffffffffffffffffffffffffffff160217905550507fd63771ce80cb53bb4d7cf1f2581e452db2655585369c45b7e7478a1a1aad199660405160405180910390a1600192505050919050565b6000809054906101000a900473ffffffffffffffffffffffffffffffffffffffff1681565b60003373ffffffffffffffffffffffffffffffffffffffff166001836040518082805190602001908083835b60208310151561156a5780518252602082019150602081019050602083039250611545565b6001836020036101000a038019825116818451168082178552505050505050905001915050908152602001604051809103902060000160009054906101000a900473ffffffffffffffffffffffffffffffffffffffff1673ffffffffffffffffffffffffffffffffffffffff161415156115e357600080fd5b60006001836040518082805190602001908083835b60208310151561161d57805182526020820191506020810190506020830392506115f8565b6001836020036101000a03801982511681845116808217855250505050505090500191505090815260200160405180910390206006015414151561166057600080fd5b6001826040518082805190602001908083835b6020831015156116985780518252602082019150602081019050602083039250611673565b6001836020036101000a038019825116818451168082178552505050505050905001915050908152602001604051809103902060050154421115156116dc57600080fd5b6001826040518082805190602001908083835b60208310151561171457805182526020820191506020810190506020830392506116ef565b6001836020036101000a038019825116818451168082178552505050505050905001915050908152602001604051809103902060000160009054906101000a900473ffffffffffffffffffffffffffffffffffffffff1673ffffffffffffffffffffffffffffffffffffffff166108fc6001846040518082805190602001908083835b6020831015156117bc5780518252602082019150602081019050602083039250611797565b6001836020036101000a0380198251168184511680821785525050505050509050019150509081526020016040518091039020600401549081150290604051600060405180830381858888f19350505050151561181857600080fd5b60026001836040518082805190602001908083835b602083101515611852578051825260208201915060208101905060208303925061182d565b6001836020036101000a0380198251168184511680821785525050505050509050019150509081526020016040518091039020600601819055507fbdef9cc3ca18b6d538e6371c5586a199ee273308399a083d78ce55b2994791d960405160405180910390a160019050919050565b602060405190810160405280600081525090565b82805482825590600052602060002090810192821561194e579160200282015b8281111561194d5782518260006101000a81548173ffffffffffffffffffffffffffffffffffffffff021916908373ffffffffffffffffffffffffffffffffffffffff160217905550916020019190600101906118f5565b5b50905061195b9190611a15565b5090565b815481835581811511611986578183600052602060002091820191016119859190611a58565b5b505050565b828054828255906000526020600020908101928215611a04579160200282015b82811115611a035782518260006101000a81548173ffffffffffffffffffffffffffffffffffffffff021916908373ffffffffffffffffffffffffffffffffffffffff160217905550916020019190600101906119ab565b5b509050611a119190611a15565b5090565b611a5591905b80821115611a5157600081816101000a81549073ffffffffffffffffffffffffffffffffffffffff021916905550600101611a1b565b5090565b90565b611a7a91905b80821115611a76576000816000905550600101611a5e565b5090565b905600a165627a7a723058209515fe5734cf53959e74620a66082ac7fda12b3b258807251ed3ed7ca6032b400029",
  "source": "pragma solidity ^0.4.15;\n\ncontract P2Gether {\n\n    /* Standard state variables */\n    address public owner;\n\n    struct Plan {\n        address hostAddress;\n        address[] joinList;\n        address[] confirmList;\n        uint256 value;\n        uint256 total;\n        uint endTime;\n        uint status;\n    }\n\n    mapping (bytes => Plan) plans;\n\n    uint constant PLAN_STAUS_WAITING = 0;\n    uint constant PLAN_STAUS_CANCELLED = 1;\n    uint constant PLAN_STAUS_STARTED = 2;\n\n    /* Event */\n    event PlanCreated();\n    event PlanJoined();\n    event PlanCancelled();\n    event PlanStarted();\n\n    /* Modifier */\n    modifier ownerOnly() {\n\t\trequire(msg.sender == owner);\n\t\t_;\n\t}\n\n    /* Constructor function, where owner set */\n    function P2Gether() public {\n        owner = msg.sender;\n    }\n\n    function createPlan(bytes planId) payable public returns (bool) {\n\n        require(msg.value > 0);\n        require(plans[planId].total == 0);\n\n        address[] memory joinList = new address[](0);\n        address[] memory confirmList = new address[](0);\n\n        plans[planId] = Plan({\n            hostAddress : msg.sender,\n            joinList : joinList,\n            confirmList : confirmList,\n            value: msg.value,\n            endTime: now + 1 weeks,\n            total : msg.value,\n            status : PLAN_STAUS_WAITING\n        });\n\n        plans[planId].joinList.push(msg.sender);\n\n        PlanCreated();\n\n        return true;\n    }\n\n    function joinPlan(bytes planId) payable public returns (bool) {\n\n        require(plans[planId].total != 0);\n        require(msg.value == plans[planId].value);\n        require(now <= plans[planId].endTime);\n        require(plans[planId].status == PLAN_STAUS_WAITING);\n\n        plans[planId].joinList.push(msg.sender);\n        plans[planId].total += msg.value;\n\n        PlanJoined();\n\n        return true;\n    }\n\n    // cancel plan\n    function cancelPlan(bytes planId) payable public returns (bool) {\n\n        require(plans[planId].status == PLAN_STAUS_WAITING);\n\n        bool check = false;\n        uint index = 0;\n\n        for (uint i = 0; i < plans[planId].joinList.length; i++) {\n            if (msg.sender == plans[planId].joinList[i]) {\n                check = true;\n                index = i;\n                break;\n            }\n        }\n        require (check == true);\n\n        if (msg.sender == plans[planId].hostAddress) {\n            if (plans[planId].joinList.length == 1) {\n                plans[planId].hostAddress.transfer(plans[planId].total);\n            } else {\n                \n                uint surplus = plans[planId].total % (plans[planId].joinList.length - 1);\n                uint total = plans[planId].total - surplus;\n                uint perShare = total / (plans[planId].joinList.length - 1);\n                \n                for (i = 1; i < plans[planId].joinList.length; i++) {\n                    plans[planId].joinList[i].transfer(perShare);\n                }\n                \n                if (surplus > 0) {\n                    owner.transfer(surplus);\n                }\n            }\n        }\n\n        address[] memory joinList = plans[planId].joinList;\n        plans[planId].joinList = new address[](0);\n\n        for (i = 0; i < joinList.length; i++) {\n            if (joinList[index] != msg.sender) {\n                plans[planId].joinList.push(joinList[index]);\n            }\n        }\n\n        plans[planId].status = PLAN_STAUS_CANCELLED;\n\n        return true;\n    }\n\n    function startPlan(bytes planId) payable public returns (bool) {\n        require(plans[planId].hostAddress == msg.sender);\n        require(plans[planId].status == PLAN_STAUS_WAITING);\n        require(now > plans[planId].endTime);\n\n        plans[planId].hostAddress.transfer(plans[planId].total);  \n        plans[planId].status = PLAN_STAUS_STARTED;\n\n        PlanStarted();\n\n        return true;\n    }\n}\n",
  "sourcePath": "/Users/Apple/Sites/blockathon2017-team3/contracts/P2Gether.sol",
  "compiler": {
    "name": "solc",
    "version": "0.4.18+commit.9cf6e910.Emscripten.clang"
  },
  "schemaVersion": "1.0.1",
  "updatedAt": "2017-11-25T18:41:25.172Z"
}